:020000040800F2
:10000000D01B0020ED0100081D2000081D1F000866
:1000100019200008CB1300080F2900080000000079
:100020000000000000000000000000009D25000806
:1000300035160008000000007B250008FD2600089A
:10004000070200080702000807020008070200086C
:10005000070200080702000807020008070200085C
:10006000070200080702000807020008070200084C
:10007000070200080702000807020008070200083C
:10008000070200080702000807020008070200082C
:10009000070200080702000807020008070200081C
:1000A000070200080702000807020008070200080C
:1000B00007020008070200080702000807020008FC
:1000C00007020008070200080702000807020008EC
:1000D0000702000829280008070200080702000894
:1000E00007020008070200080702000807020008CC
:1000F00007020008070200080702000807020008BC
:1001000007020008070200080702000807020008AB
:10011000070200080702000807020008070200089B
:10012000070200080702000807020008070200088B
:1001300000F002F800F04AF80AA090E8000C8244AF
:100140008344AAF10107DA4501D100F03FF8AFF28C
:10015000090EBAE80F0013F0010F18BFFB1A43F0A5
:10016000010318471061000030610000103A24BFFD
:1001700078C878C1FAD8520724BF30C830C144BF0C
:1001800004680C607047000000230024002500264E
:10019000103A28BF78C1FBD8520728BF30C148BFEA
:1001A0000B607047662904F04680642900F088805F
:1001B000002070471FB500F0E1FB04000020002183
:1001C00003F082FAE0601FBD10B510BD00F0D6FC50
:1001D0001146FFF7EFFF02F023FD00F0F4FC03B43B
:1001E000FFF7F2FF03BC02F0AFFB000009488047B5
:1001F00009480047FEE7FEE7FEE7FEE7FEE7FEE709
:10020000FEE7FEE7FEE7FEE704480549054A064B20
:10021000704700000127000831010008D0150020B8
:10022000D01B0020D0170020D017002070470000FE
:100230000FB4044910B503AA029800F08DFB10BC5E
:100240005DF814FB880000200FB41CB5074B06AA0C
:100250007B4469460090059800F065FB00206946E4
:1002600000F074FB1CBC5DF814FB0000F9060000F4
:1002700070B5044685690068C10601D5302600E0E6
:100280002026C00707D070BDD4E901213046904731
:10029000206A401C20626D1EF6D570BD70B5044604
:1002A00085690078C00707D170BDD4E901212020FD
:1002B0009047206A401C20626D1EF6D570BD00007C
:1002C0002DE9F0410646002410687529314616A52F
:1002D00010D0AFF30080002802DA404213A507E0F7
:1002E00031688A0701D512A502E0490704D511A596
:1002F000012401E0AFF3008000210A2206F1240767
:1003000009E0B0FBF2FCB0FBF2F302FB1C00303062
:1003100078541846491C0028F3D123462A46304613
:10032000BDE8F04100F093B8000000002D0000008F
:100330002B000000200000002DE9F0474FF0000ADC
:1003400089460446C0F820A02046E1688847002876
:1003500076D0252806D0D4E901219047206A401C98
:100360002062F1E7E168204600258847C4F81CA018
:1003700006460027C4F818A02A2E09D0304602F0FD
:10038000DCFA38B304EB8708303EC8F8186019E08F
:1003900059F8041B204604EB87029161E168884705
:1003A000012F064618D1E069002820DA25F0200543
:1003B0001DE0D8F8180000EB800006EB4000303854
:1003C000C8F818002046E1688847064602F0B5FAEA
:1003D0000028EED1012F0AD02E2E08D12046E16848
:1003E00088477F1C0646022F45F02005C4DBA06924
:1003F000002803DA404245F00105A061E80701D07A
:1004000025F01005B6B1A6F14100192802D8203612
:1004100045F400654A463146204625604D46FFF7C3
:10042000C1FE58B1012806D0ED1D25F0070000F1EE
:10043000080989E704E005F1040985E730468AE701
:10044000206ABDE8F08770477047704770472DE914
:10045000F0470D4699469246044600F1240801688B
:10046000880604D5E06921F01001216000E0012038
:10047000A84201DD471B00E00027A1697A1902EBC1
:100480000900081AA0612078C00602D42046FFF7B0
:10049000EFFE002608E0D4E901211AF80600904793
:1004A000206A401C761C20624E45F4DB2078C00692
:1004B0000AD52046FFF7DCFE06E0D4E90121302012
:1004C0009047206A401C2062381EA7F10107F4DC27
:1004D00007E0D4E9012118F805009047206A401C84
:1004E0002062281EA5F10105F3DC2046FFF7D6FEA9
:1004F0002078000602D50220BDE8F0870120FBE746
:1005000070472DE9FF4F0C461E464FF0FF378BB06A
:10051000D2E90001DDF860800A908A46C1F30A55ED
:1005200005B93D46002108464FF00000BAF1000F22
:1005300000F4400005DA00EB80004FF4400101EACE
:1005400050004FEA9059B9F1010F00DDB9460A9801
:1005500050EA4A000ED044F61050A5F2FF3545434C
:100560002F14B8F1000F1ED07542291E1EDDC9F1EF
:1005700000021CE0B8F1010F4FF0000001D0302163
:1005800003E0F24305E02154401CB042FBDB30465F
:100590000022002121540B99C1F80880C1E90020F4
:1005A0000FB0BDE8F08FBD1B6D1CDEE74A4600DAD8
:1005B000694206A800F06CFA06AB93E8070003ABAB
:1005C00083E8070050460A9900F044FB8DE80700D5
:1005D000A0F500501F3800900398002D09DD42F26D
:1005E0001F014A46084403A90390684600F0A3FD92
:1005F00008E0A0F500504A461F3803A9039068465A
:1006000000F0ADFD8DE807000004000C03D04FF0B2
:10061000FF30410800E01046B8F1000F03D000227F
:10062000009215461EE0751E05D400F0ABF930327D
:1006300062556D1EF9D5B3460122084302D000224F
:100640007F1C04E02078302801D100227F1E002A80
:10065000099786D01DE0112D07DA00F093F93032AA
:1006600062556D1C50EA0102F5D1084302D0009892
:10067000C8B10EE00021681E05E0235C625C635493
:100680002254401E491C8142F7DBAB46A81B401E8A
:100690000990002004F80B000B98099AC0F8088014
:1006A000C0E9002B7CE711264FF0000859E72DE93F
:1006B000F04F88460446D21D22F0070191B0D1E9DF
:1006C0000001CDE90A0102F024F902460B98C00F9F
:1006D00001D02D2007E02068810701D52B2002E002
:1006E000202101EAC000032A099001D0072A05DB76
:1006F00003464146204600F08BF90BE12078800646
:1007000001D5E06900E00620B8F1650F814606D00A
:10071000B8F1660F18D0B8F1670F70D131E0002042
:10072000B9F1110F009001DB112301E009F1010380
:100730000AAA01A90CA8FFF7E4FEDDE90C70002667
:1007400009F10105834647E001204B4600904FF038
:1007500000470AAA01A90CA8FFF7D3FEDDE90DB0F6
:100760000C995D46002610B909F101000D18B9EB8E
:10077000050003D4C0F1FF3609F10105A5EB09001E
:100780002BE0B9F1010F01DA4FF001090020B9F1B6
:10079000110F0090484601DD112300E003460AAA2C
:1007A00001A90CA8FFF7ADFEDDE90C704D4600264F
:1007B0008346207800070AD4AB4500DA5D4601A8DD
:1007C000012D04DD411911F8011C302907D04F45D6
:1007D00002DA17F1040F04DA012082460FE06D1EE1
:1007E000EEE7002F02DCED1B3E4403E0781CA8423C
:1007F00000DD7D1CB81B00F1010A4FF00047207896
:10080000000703D4AA4501DB4FF0FF3A0021B7F1FE
:10081000004F0DF143088DF8431024D002202B2304
:10082000002F01DA7F422D230A21021EA0F10100D0
:1008300000DC5FB197FBF1FC97FBF1F201FB1C7C44
:1008400017460CF1300C08F801CDEEE7A8F10100D5
:1008500003702188090501D5452100E06521A0F13B
:10086000010800F8011C09980FA9A1EB0807FF1D5A
:1008700000B10120411901EBEA70A1693844081A5E
:10088000401EA0612078C00602D42046FFF7F0FC8D
:10089000099828B1D4E901219047206A401C2062C0
:1008A0002078C00622D52046FFF7E2FC1EE0002E8D
:1008B00004DBB34502DD01A8805D00E03020D4E90F
:1008C00001219047206A401C2062761CAAF1010099
:1008D0005FEA000A0AD100F051F8C0680168405C84
:1008E000D4E901219047206A401C2062281EA5F10E
:1008F0000105DCDC07E0D4E9012118F8010B904781
:10090000206A401C2062381EA7F10107F3DC204654
:10091000FFF7C4FC032011B043E6000001694A1C44
:1009200002610878704700B58FB0CDE90131002130
:10093000059105497944CDE9031011466846FFF752
:10094000FBFC0FB000BD0000E5FFFFFF0A6802F8E6
:10095000010B0A6070470000074B70B50D467B44E1
:10096000FFF7E1FF0446284600F000F910B14FF010
:10097000FF3070BD204670BD072100000048704761
:100980009015002030B5B0F10A024FEA900E71F1D7
:1009900000034EEA817EB0EB0E0061EB91014FEA5D
:1009A000101E4EEA017E10EB0E0041EB11114FEAD2
:1009B000102E4EEA016E10EB0E0041EB11214FEAB2
:1009C000104E4EEA014E10EB0E0041EB1141401863
:1009D00041F100014FEAD00040EA41704FEAD101F5
:1009E00010EB80054FEA810444EA907444EB010463
:1009F0006D1944EB0404521BA3414FF0000348BFA0
:100A00000A3200D530BD401C41F1000130BD00006C
:100A10002DE9F0411F46044603260168072A01F428
:100A2000006004DB08B116A505E016A503E008B1D7
:100A300015A500E015A521F010002060A069C01EDA
:100A4000A0610FB1401EA0612046FFF711FC4FB11D
:100A5000D4E9012138469047206A401C2062C01C1E
:100A6000206206E0206AFAE7D4E9012115F8010BBB
:100A70009047761EF8D22046FFF710FCBDE8F081C3
:100A80004E414E006E616E00494E4600696E660032
:100A90002DE9F047814616468AB0334878440DC8A0
:100AA0008DE80D0030487844801C03AC0DC884E804
:100AB0000D0041F69B300844372190FBF1F290FB8A
:100AC000F1F5A5F1800501FB12041B3C02D564423F
:100AD000012000E00020DFF890A080460027FA44C3
:100AE000AAF1BE0A0DE0E00709D03246684607EBDE
:100AF00047010AEB810100F032FB8DE8070064102A
:100B00007F1C002CEFD1184F7F44AC3F18E0E80762
:100B100014D007EB04100DF1180A90E80E008AE8D3
:100B20000E00C068F04201D198190890324606A91B
:100B300003A800F014FB03AB83E807006D10641CEE
:100B4000002DE4D132466946B8F1000F03A802D067
:100B500000F0F1FA01E000F002FBC9E90001C9F878
:100B600008200AB0BDE8F087E0560000007B00F0E6
:100B70008000704700487047701500207546FFF7E9
:100B8000F9FFAE4605006946534620F0070085464A
:100B900018B020B5FFF738FBBDE820404FF0000645
:100BA0004FF000074FF000084FF0000B21F0070155
:100BB000AC46ACE8C009ACE8C009ACE8C009ACE898
:100BC000C0098D4670470446AFF300802046FFF70A
:100BD00006FB00004FF0013C50F8042B51F8043B99
:100BE0009A4221D1A2EB0C03934313EACC1317D101
:100BF00050F8042B51F8043B9A4215D1A2EB0C0398
:100C0000934313EACC130BD150F8042B51F8043B57
:100C10009A4209D1A2EB0C03934313EACC13DBD025
:100C20004FF00000704700BFD01A01BAB1FA81F14D
:100C300001F0180122FA01F0CB40C1F12001DBB232
:100C4000C0B2C01A2CFA01F3D11A914311EAC311B0
:100C5000E6D170475FEA400C08BF91F0000F4FEA01
:100C60008C234FEAC12243EA51514FEA1C5018BF6E
:100C700000F5F0404FEA300018BF41F000415FEA54
:100C80006C5C00F02980BCF1FF3F08BF40F0804061
:100C90007047130C06BF12044FF0100C4FF0000CFD
:100CA000130E04BF12020CF1080C130F04BF120143
:100CB0000CF1040C930F04BF92000CF1020CD30F43
:100CC00004BF52000CF1010C11464FF00002A0F1DC
:100CD0001F00A0EB0C00704711F0004F08BF7047D9
:100CE00031F000413FF4D5AF0B0C06BF09044FF0C3
:100CF000100C4FF0000C0B0E04BF09020CF1080C95
:100D00000B0F04BF09010CF1040C8B0F04BF890009
:100D10000CF1020CCB0F04BF49000CF1010CCCF11B
:100D20002003A0EB0C0022FA03F302FA0CF241EAD2
:100D3000030100F10100704720F07F4C80EA0300BE
:100D400023F07F47ACEB070303F57C5300F0004032
:100D500003F1FF032DE980494FEA154B09B44FEA2F
:100D6000144325EA0B4E24EA03480FF2042606EB4F
:100D7000132749083E785FEA320203FB0667C7F58E
:100D8000000707FB06F64FEA54374FEAD64606F14E
:100D9000020607FB066CCCF1005C4FEA1C472CEA0C
:100DA000074C07FB06F40CFB06F504EB15464FEA6F
:100DB000961634BF00204FF000404FEAD13706FBB3
:100DC00007FC4FEA1C4C0CFB0BF7D21B03FB0CF788
:100DD00061EB07010CFB0EF7B0EB074072EB17421B
:100DE0000CFB08F734BFA2EB0742B2EB074261EB02
:100DF00017414FEA0C444FEA910706FB07FC4FEA04
:100E00001C4C0CFB0BF7B0EBC74072EB573203FBEB
:100E10000CF734BFA2EBC742B2EBC74261EB5731CC
:100E20000CFB0EF7B0EBC70072EB57720CFB08F728
:100E300034BFA2EBC702B2EBC70261EB5771039F4D
:100E40004FEA816141EA921104EBCC044FEAD137B9
:100E50004FEA826206FB07FC42EA90124FEA80608A
:100E60004FEA1C4C0CFB0BF7D21B03FB0CF761EB9E
:100E700007010CFB0EF7B0EB074072EB17420CFBBF
:100E800008F734BFA2EB0742B2EB074261EB174110
:100E90004FEA8C554FEA910704EB9C2406FB07FCB4
:100EA0004FEA1C4C0CFB0BF7B0EBC74072EB573210
:100EB00003FB0CF734BFA2EBC742B2EBC74261EBB6
:100EC00057310CFB0EF7B0EBC70072EB57720CFBFF
:100ED00008F734BFA2EBC702B2EBC70261EB577150
:100EE00015EB4C254FEA816141EA92114FEA82628B
:100EF0004FEAD13742EA901206FB07FC44F10004A6
:100F00004FEA80604FEA1C4C0CFB0BF7D21B03FB33
:100F10000CF761EB07010CFB0EF7B0EB074072EB2F
:100F200017420CFB08F734BFA2EB0742B2EB0742B3
:100F300061EB174115EB1C154FEA813141EA9241F3
:100F40004FEA823242EA90424FEA80304FEA0C7612
:100F500044F1000448EA03434EEA0B484FF0000E08
:100F6000B2EB080C71EB030724BF624639464EEB27
:100F70000E0E4FF0000B0018524149414BEB0B0B8A
:100F8000B2EB080C71EB03077BF1000B24BF624648
:100F900039464EEB0E0E4FF0000B001852414941FE
:100FA0004BEB0B0BB2EB080C71EB03077BF1000B67
:100FB00024BF624639464EEB0E0E51EA020718BFB7
:100FC00046F0010616EB0E7655F1000254F10001D1
:100FD00003D5BDE88901BDE80088BDE88901BDE809
:100FE0000048B619524141EB0101A3F101037047DA
:100FF00080807F7E7D7C7B7A797877767675747356
:10100000727171706F6E6E6D6C6C6B6A6A69686814
:10101000676666656464636362616160605F5F5EAA
:101020005E5D5D5C5C5B5B5A5A5959585857575620
:101030005655555554545353525252515150505085
:101040004F4F4F4E4E4D4D4D4C4C4C4B4B4B4A4AD7
:101050004A4949494848484747474746464645451B
:101060004544444444434343434242424241414154
:10107000002B26D4770021D01CB54FEA370703B4E4
:101080004FF010004FF010014FF000000FBCBDE812
:1010900010400BF1010BBBF1010F08BF5FEA17070E
:1010A00022BF12F1010211F101014FF0004143F1A1
:1010B000000300F0004043EA00007047F9D35708EE
:1010C000DAE746EA064613F1400F4FEA16461FDDFF
:1010D00013F1200FDFBF16430A46002120335B4285
:1010E000C8D0C3F1200746EA064602FA07F74FEADE
:1010F000164646EA0706C3F1200722FA03F201FA70
:1011000007F721FA03F14FF0000342EA0702B1E7C3
:1011100046EA020646EA06464FEA164646EA01064F
:10112000BCBF46EA0646360C4FF000034FF0000203
:101130004FF000019EE72DE9C048934630B491E896
:10114000380007C831EA400C48BF34EA430C03D5E5
:10115000FFF7F2FDFFF78CFFF0BCBDE800882DE93A
:10116000C048934630B491E8380007C810F0804F6B
:1011700008BF13F0804F03D100F005F8FFF778FFA8
:10118000F0BCBDE8008820F07F4780EA030023F030
:101190007F4C07EB0C03A3F57C5300F00040A3F158
:1011A000FE0392F0000F00F0B38095F0000F00F006
:1011B00077802DE901494FEA11404FEA144621EAB0
:1011C000004800FB06FC24EA064708FB06F607FB7E
:1011D00008F800FB07F718EB06484CEB164C4FEAF3
:1011E000124B18EB07484FEA15464CEB174022EA22
:1011F0000B4E0BFB06FC25EA06470EFB06F607FB2B
:101200000EFE0BFB07F71EEB064E4CEB164C4FF099
:1012100000061EEB074E4CEB174B18EB0B0840F18A
:10122000000018EB0E0B58EB000840F100008F1A7D
:101230004FF000013CBFC943661B14BFB5EB040C63
:1012400000213CBFC943F61B4FEA17444EEA8E0EFD
:1012500027EA04454FEA1C4704FB07622CEA074CC7
:1012600005FB07F70CFB05F604FB0CFC16EB074629
:1012700042EB174216EB0C4642EB1C421BEB0606F8
:1012800058EB0202414146EA9E0601D5BDE80189BC
:10129000B619524141EB0101A3F10103BDE80189F7
:1012A0004FEA14454FEA114724EA054621EA074C64
:1012B00005FB07F406FB07F70CFB06F105FB0CFC2E
:1012C00011EB074144EB17444FEA124711EB0C4175
:1012D00044EB1C4422EA074C05FB07F206FB07F728
:1012E0000CFB06F605FB0CFC16EB074642EB17421F
:1012F00016EB0C4642EB1C456A1854F1000148BF3E
:101300007047B619524141EB0101A3F10103704747
:1013100095F0000F37D04FEA11424FEA144721EA07
:10132000024624EA074C02FB07F106FB07F70CFB19
:1013300006F402FB0CFC14EB074441EB17414FEAA7
:10134000154714EB0C4441EB1C4125EA074C02FB0A
:1013500007F506FB07F70CFB06F602FB0CFC16EB89
:10136000074645EB174516EB0C4645EB1C42121998
:1013700051F1000148BF7047B619524141EB0101DC
:10138000A3F1010370474FEA14454FEA114724EADD
:10139000054621EA074C05FB07F106FB07F70CFBA6
:1013A00006F24FF0000605FB0CFC12EB074241EB86
:1013B000174112EB0C4251EB1C4148BF7047921889
:1013C00041EB0101A3F10103704700BFFEE70000FC
:1013D00008B50121082001F0D1F84FF48050ADF894
:1013E000000010208DF8030003208DF802006946EC
:1013F000044800F020F94FF48051024800F0B1F9A0
:1014000008BD0000000C01402DE9F05F00F0C8F8B5
:1014100000F068F8CC2000F0DBF8442000F0D8F8A9
:1014200000F0BEF800F05EF8CC2000F0D1F8BE204D
:1014300000F0CEF800F0A2F8834600F09FF8824654
:101440004FEA0A2004B244EA0B04002C0DDAE04310
:10145000401C02F0D9FA074600220B4B02F0ECFACE
:10146000054602F047F981460BE0204602F0CCFA2F
:1014700007460022054B02F0DFFA054602F03AF972
:1014800081464846BDE8F09F0000B03F0000E43FC1
:1014900010B5FFF79DFF00F083F800F023F810BDB2
:1014A00008B54FF48050ADF8000048208DF80300D7
:1014B0006946024800F0BFF808BD0000000C01407A
:1014C00008B54FF48050ADF8000010208DF80300EF
:1014D00003208DF802006946014800F0ACF808BD11
:1014E000000C014010B50024FFF7DAFF04E0601C97
:1014F000C4B2012001F092FA4FF480510F4800F07D
:1015000025F908B1642CF2DB642C01DB012010BD4D
:10151000002404E0601CC4B2012001F07FFA4FF403
:101520008051064800F012F908B9F02CF2DBF02CDB
:1015300001DB0120EBE70020E9E70000000C01409F
:1015400010B5FFF7BDFF4FF480510B4800F007F9CD
:101550000A2001F063FAFFF7A3FF4FF48051064819
:1015600000F0F4F8012801D1012400E000242D202E
:1015700001F054FA204610BD000C014070B5002661
:10158000002408E0FFF7DCFF054605FA04F03043CD
:10159000C6B2601CC4B2082CF4DB304670BD00003B
:1015A00010B5FFF78DFF4FF48051084800F0D7F8D1
:1015B00040F2EE2001F032FA4FF48051034800F07F
:1015C000D0F80F2001F02AFA10BD0000000C0140F5
:1015D00070B50446FFF774FF002526E004F001060D
:1015E000641086B14FF48051114800F0B8F808201B
:1015F00001F014FA4FF480510D4800F0B2F83A208F
:1016000001F00CFA0FE04FF48051094800F0A7F800
:10161000462001F003FA4FF48051054800F0A1F88C
:10162000022001F0FBF9681CC5B2082DD6DB70BDA5
:10163000000C014070472DE9F041024600250026CC
:10164000002000230024002791F803C00CF00F05B0
:1016500091F803C00CF0100CBCF1000F03D091F80E
:1016600002C04CEA050591F800C0BCF1000F31D072
:10167000146800202BE04FF0010C0CFA00F3B1F8D5
:1016800000C00CEA03069E4220D183004FF00F0CED
:101690000CFA03F7BC4305FA03FC4CEA040491F886
:1016A00003C0BCF1280F06D14FF0010C0CFA00FC6E
:1016B000C2F814C00AE091F803C0BCF1480F05D18C
:1016C0004FF0010C0CFA00FCC2F810C0401C0828B6
:1016D000D1D31460B1F800C0BCF1FF0F34DD546801
:1016E00000202EE000F1080C4FF0010808FA0CF37E
:1016F000B1F800C00CEA03069E4221D183004FF0EE
:101700000F0C0CFA03F7BC4305FA03FC4CEA040483
:1017100091F803C0BCF1280F05D100F1080C08FABC
:101720000CF8C2F8148091F803C0BCF1480F07D13F
:1017300000F1080C4FF0010808FA0CF8C2F810800C
:10174000401C0828CED35460BDE8F081024600203A
:1017500093680B400BB1012000E00020704741610D
:1017600070470161704700003EB50020F9490860EC
:10177000F948FA4908600020F94908603220F54923
:1017800008603AE0F748F349096850F82110F14839
:1017900000683238F34A42F82010F348ED490968EE
:1017A00050F82110EB4800683238EF4A42F8201018
:1017B000EC48E849096850F82100E849096888427E
:1017C00006D2E848E349096850F82100E349086077
:1017D000E448E049096850F82100E1490968884275
:1017E00006D9E048DB49096850F82100DC49086067
:1017F000D8480068401CD7490860D6480068962839
:10180000C0DB6420D349086091E0D2480068401EE4
:10181000D44951F82000D5490860D34ACD4B1B6804
:1018200002EB8301CF4ACB4B1B6802EB830001F034
:101830007DFDCC48C749096850F82100CB490968AB
:1018400088423ED9C749C34A126851F82210C74A94
:101850001268881A02F066FBC5490860C049096829
:10186000BE4A1268881A02F05DFB04462146C04851
:10187000006802F079FABE490860BE49BC480068B9
:1018800002F098FBBA490860BB48006802F04AFBC6
:101890000446B7480168204602F058FCB449086085
:1018A0000021B348006802F051FB03D20020B24986
:1018B000086037E0AE48006802F018FBAE490860E7
:1018C00030E0A849A34A126851F82210A74A1268CA
:1018D000501A02F027FBA6490860A14909689F4AEF
:1018E0001268881A02F01EFB04462146A0480068D0
:1018F00002F03AFA9E4908609E499D48006802F04D
:1019000059FB9B4908600846006802F0EFFA9A49C3
:10191000096808449849086008460068FF2801D90A
:10192000FF2008608B480068401C8A49086089488D
:1019300000689628FFF669AF90489149914A924B0A
:10194000CDE900210290874A90480168864801F05D
:1019500035FA8A480078012872D189480068BE2883
:101960006EDA8748006828286ADD00208849086008
:1019700088480068042823D1012087490860002096
:10198000844908600C207349086014E08348714959
:10199000096850F821000A3079490968884205DD54
:1019A00000207D49086004207A4908606948006881
:1019B000401C68490860674800681028E6DB04E0BE
:1019C00074480068401C7349086073480068002828
:1019D0002DD1604908600FE070495E480068401CE6
:1019E00051F820106D485B4A126840F8221059489F
:1019F0000068401C57490860564800680F28EBDB18
:101A00005F4800686549C86365480068102804DAC3
:101A100063480068401C6249086000206149086012
:101A20005F480068022803DA00205F4908607FE011
:101A30005B48006804281DDA0E20464908600FE064
:101A40007AE056484349096850F821005549096829
:101A50000844544908603F480068401C3D490860FC
:101A60003C4800681028ECDB4E48006840104E49A6
:101A700008605DE04A48006808281CDA0C203549F7
:101A800008600EE045483349096850F8210045498F
:101A900009680844434908602E480068401C2D49E5
:101AA00008602C4800681028ECDB3E480068801075
:101AB0003D4908603CE03A48006810281CDA0820DC
:101AC000244908600EE035482249096850F8210091
:101AD000344909680844334908601E480068401CBE
:101AE0001C4908601B4800681028ECDB2D48006882
:101AF000C0102D4908601BE00020164908600EE068
:101B000026481449096850F8210026490968084404
:101B1000244908600F480068401C0E4908600D48C1
:101B200000681028ECDB1F48006800111E4908609F
:101B30000020194908603EE000201649086014485A
:101B40000068042832D10020174908601449086051
:101B500031E0000004000020FFFF0300100000201F
:101B600014000020CC100020740E0020180000206B
:101B70003000002000007F431C0000202C000020CB
:101B80002800002024000020200000200000002069
:101B900034000020380000203C00002024130020E6
:101BA000400000204400002048000020C848006891
:101BB000401CC7490860C748007801287ED1C64844
:101BC00000683B287ADD0020C4490860C4480068EA
:101BD000042823D10120C34908600020C0490860BF
:101BE0000C20C149086014E0C048BF49096850F89A
:101BF00021000A38B8490968884205DA0020B94945
:101C000008600420B6490860B7480068401CB6491F
:101C10000860B54800681028E6DB04E0B0480068BA
:101C2000401CAF490860AF48006800282DD1AE497C
:101C300008600FE0AD49AC480068401C51F8201026
:101C4000AA48A94A126840F82210A7480068401C18
:101C5000A5490860A44800680F28EBDB9E4800688F
:101C6000A249C863A2480068102804DAA0480068A6
:101C7000401C9F49086000209E4908609C480068FD
:101C8000022803DA00209C49086080E09848006838
:101C900004281EDA0E20944908600EE09348924909
:101CA000096850F82100934909680844914908607F
:101CB0008D480068401C8C49086000E06BE08A4851
:101CC00000681028EADB8B48006840108A490860E9
:101CD0005DE08748006808281CDA0C20824908600B
:101CE0000EE082488049096850F82100814909685E
:101CF0000844804908607C480068401C7A490860B4
:101D0000794800681028ECDB7A48006880107A492E
:101D100008603CE07648006810281CDA0820724908
:101D200008600EE071487049096850F82100714957
:101D3000096808446F4908606B480068401C6A499C
:101D40000860694800681028ECDB6A480068C01029
:101D5000694908601BE00020634908600EE06348A1
:101D60006149096850F821006249096808446149DD
:101D700008605D480068401C5B4908605A4800687C
:101D80001028ECDB5B48006800115B49086000200C
:101D90005449086011E00020514908604F4800682C
:101DA000042805D10020544908605149086004E026
:101DB0004A480068401C49490860504800680028AB
:101DC0007ED04D48006800287AD04C4800684C49C5
:101DD0004C4A126841F822004748016849480268A5
:101DE0000068401C474B1860474840F822101846CE
:101DF00000681E286BD100201946086057E0414852
:101E00000068401C4149086048E03D483F49096876
:101E100050F821103B4A126850F82200814216DA2D
:101E200037483849096850F8210039490860344872
:101E30003649096850F82110324A126840F82210D9
:101E4000334800682E49314A126841F822002E4872
:101E50002E49096850F821102A4A126850F82200C9
:101E6000814216DA28482749096850F82100284994
:101E7000086025482549096850F821002249214A6F
:101E8000126841F8220022480068204A126841F88E
:101E900022001E480068401C1C4908601B4800685E
:101EA0001E28B2DB17480068401C16490860154818
:101EB00000681E28A3DB1448C26B1148C16B00E008
:101EC00005E014A0FEF7B4F900200E4908603EBDFD
:101ED0003400002024000020200000204C000020BE
:101EE0005000002054000020040000206413002053
:101EF00060000020580000205C0000204800002006
:101F00001C14002008000020A41300200C00002056
:101F10006800002025642025640D0A0000BFFEE74C
:101F200010B502210A48FFF71CFC01210848FFF701
:101F300018FC00F037F802210548FFF710FC00F00C
:101F400031F801210248FFF70AFC00F02BF810BD20
:101F50000008014010B502210648FFF700FC0121EE
:101F60000448FFF7FEFB00F01DF802210148FFF7CF
:101F7000F8FB10BD0008014010B502210848FFF72A
:101F8000F0FB00F00FF801210548FFF7EAFB00F035
:101F900009F801210248FFF7E2FB00F003F810BD49
:101FA00000080140032000BF0100A0F10102D0B2EF
:101FB000FAD1704708B50121082000F0DFFA4FF48C
:101FC0008050ADF8000010208DF8030003208DF83C
:101FD000020069460448FFF72EFB4FF48051024887
:101FE000FFF7BFFB08BD0000000C014010B54FF427
:101FF00080510848FFF7B3FB4FF47A7000F0E8FC1B
:102000004FF480510348FFF7ACFB4FF47A7000F0B7
:10201000DFFC10BD000C014000BFFEE77047000070
:1020200070B500240CE0002506E00020074901EB14
:10203000C5010855681CC5B2802DF6DB601CC4B212
:10204000082CF0DB00F004F970BD000094000020C3
:1020500010B504461CB90021A62000F072FA012C2C
:1020600003D10021A72000F06CFA10BD10B5044682
:102070003CB90021C82000F064FA0021A12000F042
:1020800060FA012C07D10021C02000F05AFA00218B
:10209000A02000F056FA10BDF0B514460B46CF173D
:1020A00001EB5777C7F3C702CF1701EB5777FF1044
:1020B000A1EBC707FEB20123B340DDB24CB1134B15
:1020C00003EBC0039B5C2B43104F07EBC007BB54D3
:1020D0001AE00E4B03EBC0039B5CDB430B4F07EB9B
:1020E000C007BB54094B03EBC0039B5C2B43074F5A
:1020F00007EBC007BB54054B03EBC0039B5CDB4302
:10210000024F07EBC007BB54F0BD00009400002055
:1021100008B50121042000F031FA0320ADF80000D9
:1021200014208DF8030003208DF80200694647480B
:10213000FFF781FA03214548FFF713FB0420ADF8B0
:10214000000010208DF8030003208DF8020069467E
:102150003E48FFF770FA04213C48FFF702FB0421D8
:102160003A48FFF7FCFAC82000F032FC0421374857
:10217000FFF7F7FA0021AE2000F0E3F9002108464E
:1021800000F0DFF90021102000F0DBF900214020F1
:1021900000F0D7F90021812000F0D3F90021CF20F1
:1021A00000F0CFF90021A12000F0CBF90021C820D8
:1021B00000F0C7F90021A62000F0C3F90021A820F3
:1021C00000F0BFF900213F2000F0BBF90021D3202F
:1021D00000F0B7F90021084600F0B3F90021D5203E
:1021E00000F0AFF90021802000F0ABF90021D920E8
:1021F00000F0A7F90021F12000F0A3F90021DA2076
:1022000000F09FF90021122000F09BF90021DB2053
:1022100000F097F90021302000F093F900212020F0
:1022200000F08FF90021022000F08BF900218D20B1
:1022300000F087F90021142000F083F9FFF7F0FE89
:102240000021AF2000F07DF908BD0000000801402A
:1022500070B500242BE004F1B001C8B2002100F0F9
:1022600070F90021084600F06CF90021102000F000
:1022700068F9FFF755FE782000F092F9FFF77CFE31
:10228000402000F08DF9FFF777FE002509E00949AD
:1022900001EBC501085D00F083F9FFF76DFE681CD6
:1022A000C5B2802DF3DBFFF755FE601CC4B2082CCD
:1022B000D1DB70BD940000202DE9FE4F0746884613
:1022C00092461C460197CDF80080082C02D14FF0B1
:1022D00006091FE02046E31704EB5373DB10214689
:1022E0004FEAE47C04EB5C7C4FEAEC0CA4EBCC0CF6
:1022F000BCF1000F02D04FF0010C01E04FF0000CD8
:102300006344224604EBD27C4FEA6C0C03FB0CF3D3
:1023100003F0FF09AAF12000C6B200255EE0082CF8
:1023200007D106EB46002F4901EB400010F805B03D
:102330001DE00C2C07D106EB46002B4901EB800079
:1023400010F805B013E0102C05D1284800EB06105A
:1023500010F805B00BE0182C07D106EBC600244995
:1023600001EB800010F805B001E0BDE8FE8F002011
:1023700002901CE00BF0010028B1414638460C9A4F
:10238000FFF78AFE09E00C9808B9012000E0002060
:10239000024641463846FFF77FFE4FEA6B0B08F1D5
:1023A000010000F0FF080298401CC0B202900298A1
:1023B0000828DFDB781CC7B2082C0BD004EBD471E3
:1023C0004A100199791A8A4204D1019F0098083075
:1023D000C0B20090DDF80080681CC5B24D459EDBA0
:1023E00000BFC2E73A42000862440008D64800082D
:1023F000C64E00082DE9FC4F0746884616461C4687
:10240000BB46CDF804802046E21704EB5272D2108E
:102410002146E31704EB5373DB10A4EBC3030BB1AA
:10242000012300E000231A44624392B20092002587
:1024300055E0102C05D12C4800EB461010F805A0F3
:102440001BE0182C07D106EBC600284901EBC000A1
:1024500010F805A011E0202C05D1254800EBC6108E
:1024600010F805A009E0402C05D1224800EB4620D9
:1024700010F805A001E0BDE8FC8F4FF000091CE05A
:102480000AF0010028B1414638460B9AFFF704FED6
:1024900009E00B9808B9012000E0002002464146FF
:1024A0003846FFF7F9FD4FEA6A0A08F1010000F02B
:1024B000FF0809F1010000F0FF09B9F1080FDFDBA7
:1024C000781CC7B2A7EB0B00A04204D15F4601986D
:1024D0000830C0B20190DDF80480681C85B2009815
:1024E0008542A6DB00BFC6E7225C0008825D0008CB
:1024F000CA5D00084A5E00082DE9F84106460F460D
:1025000014461D46DDF81C8013E0CDF800802278CB
:102510002B4639463046FFF7CFFE082D02D1B01DBD
:10252000C6B205E0284605EBD07106EB6101CEB2DC
:10253000641C2078202802DB20787E28E5DDBDE8B9
:10254000F88170B505460C46FFF7EAFC782000F0EC
:1025500027F8FFF711FD1CB1402000F021F802E040
:10256000002000F01DF8FFF707FD284600F018F8DE
:10257000FFF702FDFFF7EEFC70BD704729B1064A78
:1025800092690243044B9A6104E0034A92698243D0
:10259000014B9A6170470000001002407047000034
:1025A00070B5044600251BE004F0800020B1022134
:1025B0000D48FFF7D6F803E002210B48FFF7CFF8EC
:1025C000FFF7F0FC01210848FFF7CBF8FFF7EAFC22
:1025D00001210548FFF7C3F86006040E681CC5B268
:1025E000082DE1DB70BD00000008014010B500F0CF
:1025F00001F810BD0CB50020019000903348006830
:1026000040F480303149086000BF3048006800F471
:10261000003000900198401C0190009818B9019872
:10262000B0F5A06FF1D12948006800F4003010B176
:102630000120009001E0002000900098012843D183
:102640002348006840F010002149086008460068EF
:1026500020F0030008600846006840F002000860AF
:102660001A4840681949486008464068486008466A
:10267000406840F4806048600846406820F47C1060
:1026800048600846406840F4E81048600846006822
:1026900040F08070086000BF0C48006800F00070D7
:1026A0000028F9D00948406820F003000749486035
:1026B0000846406840F00200486000BF0348406898
:1026C00000F00C000828F9D10CBD000000100240F9
:1026D00000200240042808D14FF0E021096941F0B0
:1026E00004014FF0E022116107E04FF0E021096999
:1026F00021F004014FF0E0221161704770470000A3
:1027000010B51348006840F0010011490860084600
:102710004068104908400E494860084600680E4964
:1027200008400B4908600846006820F480200860D3
:102730000846406820F4FE0048604FF41F0088609F
:10274000FFF754FF4FF000600449086010BD00001F
:10275000001002400000FFF8FFFFF6FE08ED00E069
:10276000F8B5FEF751FE2A4908600846006801F0F6
:1027700061FA06460022274B00F0EEFF044600F007
:10278000B9FF254908600846006801F053FA04467D
:1027900022460B4621A12348FDF756FD01201023B8
:1027A000204A302100904820FFF7A6FE0120102388
:1027B0000022302100901046FFF71CFE012010235C
:1027C0000246302100901846FFF714FE0120102326
:1027D0000222302100902020FFF70CFE0120102360
:1027E0000322302100900846FFF704FE0120102349
:1027F0003A22302100904020FFF75EFD0120102397
:102800000422302100907020FFF7F4FDF8BD000095
:102810006C000020000024407000002025342E327F
:10282000660000009414002010B540F225511D48A8
:1028300000F03EF810B31B4800F064F8C4B21A4828
:10284000008800F40040C8B91748008800F48040B0
:1028500060B10A2C03D000201349088020E0124800
:10286000008840F400401049088019E00D2C06D182
:102870000D48008840F480400B49088010E00A4869
:102880000088C0F30D0009490C5407480088401C1B
:102890000549088008460088C72801DD0020088017
:1028A00010BD0000003801408C000020A51400205D
:1028B00070B50246002400230025002040F66A1669
:1028C000B14200D100BFC1F3421501F01F03012640
:1028D00006FA03F3012D02D19689334006E0022D5A
:1028E00002D1168A334001E0968A33400C12012649
:1028F00006FA04F41688344013B10CB1012000E04C
:10290000002070BD01468888C0F30800704700BFF2
:10291000FEE7490050EAC12018BF04204A0D18BF45
:1029200040F0010040F2FF72B2EB515F08BF40F08F
:102930000200012808BF0520704730380A2801D25C
:10294000012070470020704700BF704708B5012183
:102950000820FFF713FE03208DF8020014208DF8E5
:1029600003004FF48070ADF8000069460648FEF79A
:1029700062FE4020ADF8000069460348FEF75BFEAA
:1029800000F020F908BD0000000C014010B56FF008
:102990000400FFF79FFE0A4800680A49B0FBF1F007
:1029A000094908700846007800EB4001C1EBC010EF
:1029B0004FF6FF7101EAC0000449088010BD000015
:1029C0007400002000127A008E0000209000002089
:1029D0000146114A12884A434FF0E0235A6100220F
:1029E0009A611A46126942F001021A6100BF4FF063
:1029F000E022106900F001021AB100F48032002ACE
:102A0000F5D04FF0E022126922F001024FF0E023EE
:102A10001A6100229A617047900000200146114A15
:102A200012784A434FF0E0235A6100229A611A4615
:102A3000126942F001021A6100BF4FF0E0221069F2
:102A400000F001021AB100F48032002AF5D04FF0F4
:102A5000E022126922F001024FF0E0231A61002205
:102A60009A6170478E00002000BF054A128802F06C
:102A70004002002AF9D0C2B2014B1B1D1A807047D8
:102A80000038014010B540200A49086000F014F8F1
:102A90004FF480700749091F086000F00DF84FF4EB
:102AA00080700449086000F007F840200149091FC0
:102AB000086010BD140C0140002001E0411CC8B2A8
:102AC0001E28FBDB7047000010B540200849086055
:102AD000FFF7F2FF4FF4807005490860FFF7ECFF45
:102AE0004FF480700249091D0860FFF7E5FF10BD33
:102AF000100C014070B50024002518E06006040E9B
:102B00004FF480700C490860FFF7D6FF0A48083878
:102B1000006800F0400008B1601CC4B24FF480703F
:102B20000549091D0860FFF7C7FF681CC5B2082DDD
:102B3000E4DB204670BD0000100C014070B5044677
:102B4000002522E004F0800018B140201049086000
:102B500003E040200E49091D0860FFF7ADFF4FF468
:102B600080700B490860FFF7A7FF4FF48070084999
:102B7000091D0860072D02D14020091F086060066A
:102B8000040EFFF799FF681CC5B2082DDADB70BD93
:102B9000100C014010B54020094908608000086011
:102BA000FFF78AFF40200649091D0860FFF784FFF0
:102BB0004FF480700249091D0860FFF77DFF10BDCA
:102BC000100C014010B54020064908608000091F24
:102BD0000860FFF771FF40200249091F0860FFF7F6
:102BE0006BFF10BD140C014010B540200B4908606C
:102BF000FFF762FF4FF480700849091F0860FFF774
:102C00005BFF06480C380068C0F380144FF48070F6
:102C100002490860FFF750FF204610BD140C014028
:102C20000EB5FFF7B3FEFFF7C5F9FFF78FFE00F013
:102C300035FC4449002000F0F9FB00F06BFA00205D
:102C40004149086030E0414A3F4B1B6802EB830179
:102C50003F4A3D4B1B6802EB830000F067FB3C489A
:102C60003949096850F821003A490968884206D272
:102C700037483549096850F821003649086034481A
:102C80003149096850F8210033490968884206D95A
:102C90002F482D49096850F821002F4908602A481B
:102CA0000068401C28490860274800682B490968CB
:102CB0008842C8DB26482449096850F82100284981
:102CC000086028482849294A294BCDE9002102906B
:102CD0001F4A224801681D4800F070F8FFF710FDF8
:102CE000FEF7D6FBFFF714FA0020FFF7B1F900203A
:102CF000FFF7BCF901201023032219460090302071
:102D0000FFF778FB1DE0FFF771F94FF48071194868
:102D1000FEF727FD4FF4FA70FFF75AFE4FF480716B
:102D20001448FEF71CFD4FF4FA70FFF751FEFFF751
:102D30008FFAFEF719FDFFF713FD4FF4FA70FFF756
:102D400047FEE0E76400002004000020740E00202D
:102D5000CC100020100000201400002000000020F3
:102D6000180000202C000020280000202400002053
:102D700020000020000C01402DE9F84705460C46D4
:102D800016461F46DDE90A9ADDF824803B463246A6
:102D900021462846CDF8008000F0CCFB4B46324659
:102DA0002146284600F01BFC2068504501DA2068C7
:102DB00000E050462060BDE8F88700002DE9FF4F95
:102DC000A4B08346884600202390002405E05BF8E9
:102DD0002410239808442390641C4445F7DB23986F
:102DE000B0FBF8F02390002407E05BF82410239850
:102DF000081AC44941F82400641C4445F5DB00244A
:102E000017E0C04951F824200B46611C53F82110EB
:102E10000A44A11C53F821100A44E11C53F8211064
:102E20005018C11700EB917189101A4642F824100E
:102E3000641C922CE5DB0027002404E0B14850F824
:102E400024000744641C962CF8DB962097FBF0F7CF
:102E50001E2F00DA1E273C2F00DD3C27002404E053
:102E6000002012A941F82400641C0F2CF8DB0F206D
:102E700004219623A34ACDE90071029021A912A84A
:102E8000FFF77AFF002011902198022821DB01240E
:102E90000BE012A850F82410601E12AA52F820006D
:102EA000091A119808441190641C21988442F0DB9F
:102EB0002198401E119991FBF0F0119040F6B83125
:102EC000119891FBF0F13298016001213398017063
:102ED00005E08D493298016000213398017000248B
:102EE0000BE05BF82400874941F82400269850F84D
:102EF0002400864941F82400641C4445F1DB2198F4
:102F00002290002005900026002404E0002006A95D
:102F100041F82400641C052CF8DB00240EE012A804
:102F200050F82400962808DD774927980160002191
:102F30003198017028B0BDE8F08F641C229884425B
:102F4000EDDB0024A3E04FF07F400D900C9012A920
:102F5000601C51F8200051F82410401A03287DDD30
:102F600012A850F8245016E0664850F825100C9826
:102F7000814204DD634850F825000C900B956348AE
:102F800050F825100D98814204DD604850F8250066
:102F90000D90AA466D1C12A9601C51F82000A84291
:102FA000E2DC601C51F82000584951F8200012A9B9
:102FB00051F82410554A52F82110401A12A951F81C
:102FC0002410AAEB01014843109012A9601C51F88B
:102FD000200051F82410411A109890FBF1F012A92A
:102FE00051F8241052F8211008441090104650F85F
:102FF0002A101098081A109012A9601C51F820008D
:10300000404951F8200012A951F824103D4A52F8C5
:103010002110401A12A951F824200B99891A48430B
:103020000F9012A9601C51F8200051F82410411A89
:103030000F9890FBF1F012A951F82410314A52F880
:10304000211008440F90104650F82A100F98081AC3
:103050000F900C9910984843C01100E016E00490BE
:103060000D990F984843C0110390039800280DDD77
:10307000052E0BDA049848B164210498484303995B
:1030800090FBF1F006A941F82600761C641C2298FA
:10309000401EA0423FF757AF314606A800F0D8FACD
:1030A000304606EBD0714FEA6109B9F1010F0CDD32
:1030B000A9F1010106AA52F8211052F82920881816
:1030C00000EBD0714910059103E006A850F82900E3
:1030D0000590059802280DDD0598B8280ADA0C49F4
:1030E0000598085C0E9027990E9808600121319888
:1030F000017005E0044927980160002131980170B2
:1031000000BF17E71405002019FCFFFF6C07002023
:103110004A60000810B5C021022000F0D3F920B9A0
:1031200036A0FDF785F8002010BD0021032000F037
:10313000C9F920B937A0FDF77BF80020F4E700219A
:10314000042000F0BFF920B938A0FDF771F8002085
:10315000EAE70021052000F0B5F920B93AA0FDF713
:1031600067F80020E0E70021062000F0ABF920B965
:103170003CA0FDF75DF80020D6E76F21082000F0A5
:10318000A1F920B93E48FDF753F80020CCE7032110
:10319000092000F097F920B93A48FDF749F80020D6
:1031A000C2E72F210A2000F08DF920B93648FDF73B
:1031B0003FF80020B8E717210C2000F083F920B970
:1031C00032A0FDF735F80020AEE717210D2000F002
:1031D00079F920B938A0FDF72BF80020A4E77F216A
:1031E000102000F06FF920B93EA0FDF721F8002073
:1031F0009AE748A0FDF71CF8012095E7494E545284
:10320000312073657474696E672066616C73650D37
:103210000A000000494E5452322073657474696E7E
:10322000672066616C73650D0A0000004649464FD1
:103230005F57525F5054525B343A305D2066616C88
:1032400073650D0A000000004F56465F434F554E10
:103250005445525B343A305D2066616C73650D0AEB
:10326000000000004649464F5F52445F5054525B95
:10327000343A305D2066616C73650D0A0000000011
:10328000EC610008306200089861000843686F6FC5
:1032900073652076616C756520666F72207E2034C0
:1032A0002E356D4120666F72204C454431202066DA
:1032B000616C73650D0A000043686F6F736520765B
:1032C000616C756520666F72207E20342E356D41ED
:1032D00020666F72204C4544322066616C73650D28
:1032E0000A00000043686F6F73652076616C756536
:1032F00020666F72207E2032356D4120666F72200D
:1033000050696C6F74204C45442066616C73650D88
:103310000A0000004D4158333031303220496E6987
:103320007420747275650D0A00000000F8B504463B
:103330000D46002028602060694600F077F8694655
:10334000012000F073F8FFF725FCAE20FFF7F6FB35
:10335000FFF74AFC18B12FA0FCF76AFF55E00720E1
:10336000FFF7ECFBFFF740FC18B12CA0FCF760FF67
:103370004BE0FFF70FFCAF20FFF7E0FBFFF734FC5B
:1033800018B128A0FCF754FF3FE0FFF7B3FB064657
:10339000FFF778FB3604206830442060FFF7AAFB73
:1033A0000646FFF76FFB3602206830442060FFF7C7
:1033B000A1FB0646FFF766FB206830442060FFF75C
:1033C00099FB0646FFF75EFB360428683044286008
:1033D000FFF790FB0646FFF755FB3602286830449E
:1033E0002860FFF787FB0646FFF74CFB2868304450
:1033F00028602068C0F3110020602868C0F3110025
:103400002860FFF7DFFB0120F8BDFFF7DBFB0020A2
:10341000FAE7000037CAA7B0DC0D0A0038CAA7B027
:10342000DC0D0A0039CAA7B0DC0D0A0070B50546EC
:103430000C46FFF7AFFBAE20FFF780FBFFF7D4FB96
:1034400018B113A0FCF7F4FE1EE02846FFF776FB48
:10345000FFF7CAFB18B10FA0FCF7EAFE14E0FFF774
:1034600099FBAF20FFF76AFBFFF7BEFB18B10AA07C
:10347000FCF7DEFE08E0FFF73DFB2070FFF724FBC2
:10348000FFF7A0FB012070BDFFF79CFB0020FAE7CF
:10349000340D0A00350D0A00360D0A0010B5402122
:1034A000092000F00FF820B903A0FCF7C1FE0020AE
:1034B00010BD0120FCE700003130CAA7B0DC0D0AC6
:1034C0000000000070B505460C46FFF763FBAE2018
:1034D000FFF734FBFFF788FB18B110A0FCF7A8FE3C
:1034E00017E02846FFF72AFBFFF77EFB18B10DA077
:1034F000FCF79EFE0DE02046FFF720FBFFF774FB74
:1035000018B10AA0FCF794FE03E0FFF75BFB012073
:1035100070BDFFF757FB0020FAE7000031CAA7B0E3
:10352000DC0D0A0032CAA7B0DC0D0A0033CAA7B00E
:10353000DC0D0A002DE9F04705461E46089C0120D7
:103540004FF00008002300274FF0040C4FF0000953
:10355000C1F800903DE0BFBB52F82090A14509DDC5
:1035600052F820A0A0F1010952F82990CA4501DDC6
:103570004FF00108B8F1010F2AD152F82090A1456F
:1035800005DA634503DA4FF00008002320E06345C5
:103590001BD152F82090A1451ADAA0F1010952F886
:1035A0002990A14514DBD1F80090B9F10F0F07DA8B
:1035B000D1F800A00AF10109C1F8009045F82A00ED
:1035C00000239846082703E001E05B1C00E07F1E13
:1035D000401CA6F101098145BDDCBDE8F0872DE95D
:1035E000F04F05460C4692469846294650462268BA
:1035F00000F049F84FF0FF3621E0D4F800B0701C1D
:103600002060771C18E055F82710701C10B94FF097
:10361000FF3001E055F82600A1EB0009C14503DCAD
:10362000C8F10000814506DA55F827102268501CC1
:10363000206045F822107F1C5F45E4DB761C206883
:10364000B042DADC2846216800F002F8BDE8F08FCD
:1036500030B50C46012213E050F82230114605E047
:103660004D1E50F8255040F82150491E002904DD18
:103670004D1E50F825509D42F2DC40F82130521C7E
:10368000A242E9DB30BDF0B503461546012217E042
:1036900051F82240104605E0461E51F8266041F8D8
:1036A0002060401E002808DD53F82470461E51F8A3
:1036B000266053F82660B742EEDC41F82040521CE9
:1036C000AA42E5DBF0BD000010B500290AD0087859
:1036D000002807D005487844FDF77CFA002801D07F
:1036E000002010BD0248784410BD0000BE2B000031
:1036F000B62B000021F00042A2F16052B2F5801F0B
:1037000001F0004328BFD2F17F6C0BD95FEA001CA7
:1037100043EAC20242EB507018BF704728BF20F046
:1037200001007047B2F5801FBCBF184670474FEAD2
:10373000410C1CF5001F02D2084600F002BD70B516
:1037400000F024FA00000089FFF7F6BF4FF00040B8
:10375000A0F58000704700002DE9C04130B4DFF8CB
:10376000A0C23CEA111418BF3CEA131400F0EC802C
:1037700081EA03051CEA111444EAD57418BF1CEA57
:10378000131500F0C780A4EB05044FF0004545EA8F
:10379000C12145EAC32341EA505143EA525304F19F
:1037A0007F74994204F500344FEAC0204FEAC222E8
:1037B00008BF904200F09C804FEA13650FF240165C
:1037C000765D4FEA134506FB05F7C7F1807706FBE8
:1037D00007F74FEAD737A7FB03687642C8F580386A
:1037E000A7FB06CE38BFA8F1010807FB08E64FF09B
:1037F000000EA6FB028CE6FB03CEDCF1000CCEF142
:10380000004E38BFAEF1010EA6FB0C584FF000077A
:103810004FF00005E6FB0E87A1FB08C6A0FB07CE14
:1038200016EB0E0645F10005E1FB076515F1E04ECC
:103830007EBFA4F580345FEA46066D4116F180072D
:1038400045F100054FEA17274FEA066647EA056784
:10385000A6F1DE46B6F1805F4FEA15251FD938463E
:1038600024F0010C05EBC471BCF1FE6F01EB0C11EF
:1038700002D8F0BCBDE8008124425CBF01F5801E87
:103880009EEAC47F02D4F0BCBDE80081244238D453
:10389000F0BCA1F1C041BDE8004100F0C5B94FEA5C
:1038A000D22242EA43524FEAD323A7FB02864FEAD1
:1038B000D02040EA415007FB03661EEA0E0F4FEA94
:1038C000D12105FB026658BFA6EB0056B6EB0056A9
:1038D0004FEA520E4EEAC37E18EB0E0E56EB530E15
:1038E000BDD518EB02085E417F1C55F10005B6E717
:1038F0004FF480154FF000074FF000064FF000081E
:10390000ADE7F0BC4FF0000001F1C04101F0004113
:10391000BDE8008111EA0C1F0CEA131500D00CE081
:1039200013EA0C1F00F025804FF00000F0BC81EA84
:10393000030101F00041BDE80081F0BCBDE8004199
:1039400081EA030100F070B9F0BCBDE8004170B538
:1039500000F01CF9097EFC3E00F007B881EA030183
:103960004FF0000001F00041704781EA030100F0D0
:103970005BB9F0BCBDE800414FF000002149704741
:10398000FFFDFBF9F7F5F4F2F0EEEDEBE9E8E6E424
:10399000E3E1E0DEDDDBDAD8D7D5D4D3D1D0CFCDAB
:1039A000CCCBCAC8C7C6C5C4C2C1C0BFBEBDBCBBE4
:1039B000BAB9B8B7B6B5B4B3B2B1B0AFAEADACABDF
:1039C000AAA9A8A8A7A6A5A4A3A3A2A1A09F9F9EB9
:1039D0009D9C9C9B9A99999897979695959493936B
:1039E000929191908F8F8E8E8D8C8C8B8B8A898902
:1039F0008888878786858584848383828281818085
:103A00000000FF070000F87F10F0004248BF40426E
:103A1000B0FA80F310FA03F10AD0C3F11D0303F5E5
:103A200080634FEA415002EB035202EBD121704711
:103A30004FF0000070470000DFF848C170B51CEA85
:103A4000111E1EBF1CEA13159EEA0C0F95EA0C0FFF
:103A500000F06F8081EA030423EA4C134EEAD47E1F
:103A600021EA4C1141F4801143F48013AE44A1FBD0
:103A7000024CA0FB0365AEF17F7E361955EB0C05B9
:103A8000A1FB034C4CF10003A0FB021C16EB0C063F
:103A9000654153F10003094218BF46F0010613F4D3
:103AA000007F0BD14FEA03314FEA0530340341EA7E
:103AB000155140EA16506FF003020AE04FEAC321A5
:103AC0004FEAC520F40241EA555140EA56506FF0E2
:103AD000020202EB2E4201EB025585EACE710AD0BA
:103AE0005FEA440C18BF24F0004450F1000041F19B
:103AF000000120EAD47040F2FE7C624500D270BD25
:103B0000A84214BF4FF080444FF04044002E08BF3D
:103B10000024BEF1806FA8BFA1F1C041BDE8704094
:103B200080F282804FF0000001F1C04101F00041BD
:103B300070479EEA0C0F0CEA131518BF95EA0C0F9C
:103B400006D04FF0000081EA030E0EF0004170BD78
:103B500000F01CF88900013E00F007B800F009B839
:103B60004FEA430C5FEA5C5C08D081EA030100F095
:103B70005BB84FEA410C5FEA5C5CF6D14FF00000A5
:103B8000014970470000FF070000F87F0EF1020EA8
:103B90002EF0030E5EF8046B364205D4012A43EB87
:103BA000030515F5001F12D8012841EB010C1CF587
:103BB000001F0CD80ED14FEAD17C15F5001F0CEB7D
:103BC0004C0C0CF1020C08BF4CEBD37C04E04FF022
:103BD000080C01E04FEAD37C0CEB4C0526FA05F605
:103BE00006F00706B6F1040C06D20EEB860CBDE813
:103BF00070404CF0010C6047DFE80CF0090B02024A
:103C00004FF000414FF00000A1F5002170BD1946B2
:103C10001046012851EB010418BFD4F5001484BFED
:103C2000002001F0004170BD0808A0F500114FEA26
:103C30003101704743004FEAD30C4FEA3C0C43403C
:103C40001FBF40070CF1605113F0FE4F70471CF08E
:103C5000006F03D100200CF0004170470CF00043CE
:103C600043EA507010B540EACC0000F024FA00BFDF
:103C7000000000924FEA0001FFF7D6BF4FF000416D
:103C80004FF00000A1F500217047000090EA010FFD
:103C900048BF81F0004100F16082421A3CBF801AA7
:103CA00089184FEAD0524FF07F4C1CEA410FA2EB2B
:103CB000D15318BF9CEA026F00F03B804FF0004CDC
:103CC0004CEA00204CEA012121FA03FC10EB0C0C19
:103CD0001ED202F1FF325FEA1C2040EBC25038BF17
:103CE00070471CF07F0F4FEA400C18BFBCF17F4FAC
:103CF00038BF7047C3F12003994008BF20F001008E
:103D0000BCF17F4F38BF7047A0F1C04000F019BA36
:103D10004FEA3C00000A40EBC25028BF1CF0FF0FE6
:103D20004FEA400CE6D018BFBCF17F4F38BF704758
:103D3000EAE79CEA026F05D010EA5C0F08BF00F0CA
:103D40000040704710B500F0B6F900BF64FBBE3EFE
:103D5000401058BFC0F14040491058BFC1F1404128
:103D60008142EFF3008070474FF47F0C1CEAD012C1
:103D70001EBF1CEAD11392EA0C0F93EA0C0F00F05D
:103D8000858090EA010F48BF42F4807240F4000C35
:103D900041F400002CF07F4120F07F4000B58142CB
:103DA000A2EB03020FF2081CACEB504EC0F1000076
:103DB0009EF800E04FEA4E0E00FB0EFC38BF4900B3
:103DC0004FEA2C1C02F5FA020CFB0EF34FEACE1E52
:103DD0004FEA112C4FEAC1210EEB635E42EB224207
:103DE0000EFB0CFC4FEA1C5300FB03114FEA112C95
:103DF0004FEA01310EFB0CFC4FEADC4C00FB0C11CE
:103E0000C14228BF09184CEB03335DF804EB10EBFB
:103E1000410143EBC250B2F57C0F38BF704729D542
:103E200012F0F00F1CBF00F1C04000F000407047DE
:103E3000008182838485868788898B8C8D8E8F9183
:103E40009293959697999A9C9D9FA0A2A3A5A7A8A7
:103E5000AAACAEB0B2B3B5B7B9BCBEC0C2C5C7C9D3
:103E6000CCCED1D4D7D9DCDFE2E6E9ECF0F3F7FA37
:103E7000FE0000004FEA400C0CF1807CBCF17E4F4C
:103E800028BF7047B0F1C04000F05BB990EA010F65
:103E90000CEAD11348BF42F48072624538BF6345D3
:103EA00007D213F47F0F16D080EA010000F0004023
:103EB000704710B500F0FFF8097EFC3E00F005B831
:103EC00080EA010000F00040704780EA010000F045
:103ED000004000F036B912F47F0F04BF024870476B
:103EE00080EA010000F02DB90000C07F41000B0EF8
:103EF000D3F19E0208D950F400034FEA032323FABA
:103F000002F048BF4042704710B500F0D4F800BF3F
:103F100049922480002070476FF0004282EA20001E
:103F200070470000B0FA80F310FA03F2C3F19D036A
:103F30000AD0D90501EB1220530638BF704700F1B3
:103F4000010008BF20F001007047000050EA010C9A
:103F500000F113801CF5000F58BFBCF5000F01D411
:103F60008842704707D710F5000F58BF11F5000FB2
:103F700015D488427047894270471CF5000F04D55C
:103F8000BCF5000FF7D5814270474FF0807C1CEBE9
:103F9000400F38BF1CEB410F01D28142704710B572
:103FA00000F089F8922449004FF000504FF0805102
:103FB000FFF7CEBE4FF47F0C1CEAD0121EBF1CEAE6
:103FC000D11392EA0C0F93EA0C0F00F0478090EAAD
:103FD000010F48BF42F480724FF0004C4CEA0020C1
:103FE0004CEA012102EB0302A0FB0113A2F500023F
:103FF000002918BF43F001035B0028BF4FEA3303D9
:1040000042EB22425FEA132C4CEBC2502EBFBCEBBA
:10401000436FB2F57C0F70474FEA036CBCF1004F61
:1040200008BF20F00100B2F57C0F38BF70470BD5F8
:1040300082F0FF0212F5803FC8BF704700F1C04018
:10404000D8BF00F00040704700F5000C5FEA4C0C50
:1040500048BF7047B0F1C04000F073B890EA010F5C
:104060000CEAD11348BF42F48072624538BF634501
:1040700004D280EA010000F00040704710B500F063
:104080001AF800BF8900013E00F007B800F009B837
:104090005FEA410C5FEA1C6C08D080EA010000F086
:1040A00050B85FEA400C5FEA1C6CF6D14FF000405C
:1040B000A0F5800070470EF1020E2EF0030E5EF8A0
:1040C000044B244204D44FEA4102B2F17F4F11D88D
:1040D0004FEA4003B3F17F4F0CD80ED14FEAD07CAA
:1040E000B2F17F4F0CEB4C0C0CF1020C08BF4CEB07
:1040F000D17C04E04FF0080C01E04FEAD17C0CEBDE
:104100004C0324FA03F404F00704B4F1040C06D2BF
:104110000EEB840CBDE810404CF0010C6047DFE86A
:104120000CF0070802024FF00040A0F5800010BD1F
:104130000846420018BFD2F1807288BF00F00040EC
:1041400010BDFF2141EAD050C005704790EA010F31
:1041500048BF81F000413FF5A0AD421A04D882F07B
:104160000042A0EB020011444FEAD0524FF07F4CC6
:104170001CEA410FA2EBD15318BF9CEA026F4AD050
:104180004FF0004C4CEA00204CEA012121FA03FCDC
:10419000B0EB0C0C0FD412F0FE0F36D05FEA4C00DF
:1041A0001DD5001240EBC25038BF70471CF03F0FC6
:1041B00018BF70470BE0A2F101025FEA1C2040EB40
:1041C000C25038BF70471CF07F0F18BF7047C3F153
:1041D0002003994014BF401E20F001007047800862
:1041E0004FEA122308BF7047B0FA80FCA2EB0C0222
:1041F000CCF1280C60FA0CF093EA122F04BF00EB0C
:10420000C25070474FEAC3707047130A5FEADC1070
:1042100008BF7047F6E79CEA026F04D010EA5C0F13
:1042200008BF0020704710B5FFF745FF40DFF63E9E
:1042300081F000407047FCF73ABA0000000000002F
:104240000000002F000000000700070000147F148A
:104250007F1400242A7F2A12006264081323003688
:104260004955225000000503000000001C224100B7
:10427000000041221C000014083E08140008083EFB
:104280000808000000A060000008080808080000F6
:1042900060600000002010080402003E5149453EC5
:1042A0000000427F400000426151494600214145E3
:1042B0004B31001814127F10002745454539003C4A
:1042C0004A49493000017109050300364949493618
:1042D00000064949291E0000363600000000563607
:1042E00000000008142241000014141414140000EB
:1042F0004122140800020151090600324959513E79
:10430000007C1211127C007F49494936003E414130
:104310004122007F4141221C007F49494941007FE1
:1043200009090901003E4149497A007F0808087FD0
:104330000000417F4100002040413F01007F081400
:104340002241007F40404040007F020C027F007FFE
:104350000408107F003E4141413E007F09090906E3
:10436000003E4151215E007F091929460046494916
:1043700049310001017F0101003F4040403F001FE3
:104380002040201F003F4038403F00631408146362
:1043900000070870080700615149454300007F414C
:1043A000410000552A552A55000041417F00000474
:1043B00002010204004040404040000001020400AD
:1043C000002054545478007F484444380038444412
:1043D000442000384444487F00385454541800089E
:1043E0007E0901020018A4A4A47C007F08040478BC
:1043F0000000447D4000004080847D00007F102844
:1044000044000000417F4000007C04180478007CD8
:104410000804047800384444443800FC2424241858
:104420000018242418FC007C080404080048545494
:10443000542000043F444020003C4040207C001CAD
:104440002040201C003C4030403C004428102844C0
:10445000001CA0A0A07C004464544C441414141408
:104460001414000000000000000000000000000024
:10447000FC000000000002000000000C020C020022
:1044800000000000000090D0BCD0BC9000030003EE
:1044900000001824FE448C000302070201001824C7
:1044A000D8B04C80000300010201C038E438E000BD
:1044B00001020201020208060000000000000000E4
:1044C0000000000000F804020000000102040002E5
:1044D00004F800000004020100009060F860900001
:1044E0000000010000002020FC202000000001004E
:1044F000000000000000000008060000000020206E
:10450000202020000000000000000000000000004B
:104510000002000000000080601C02000403000094
:104520000000F8040404F80001020202010000087F
:10453000FC0000000002030200001884442418005C
:1045400003020202020008042424D800010202022D
:10455000010040B088FC80000000000302003C2401
:104560002424C400010202020100F824242CC0000B
:104570000102020201000C04E41C0400000003001C
:104580000000D8242424D80001020202010038448B
:104590004444F80000030202010000001000000083
:1045A00000000200000000002000000000000600E3
:1045B00000000020508804020000000001029090DA
:1045C000909090000000000000000002048850203D
:1045D0000002010000001804C424180000000200BA
:1045E0000000F804E494F80001020202020000E076
:1045F0009CF0800002030000030204FC2424D80085
:10460000020302020100F80404040C000102020289
:10461000010004FC0404F80002030202010004FC8F
:1046200024740C0002030202030004FC24740C0036
:10463000020302000000F0080444CC400001020222
:10464000010004FC2020FC04020300000302040417
:10465000FC040400020203020200000404FC04043F
:1046600006040403000004FC24D00C04020302002E
:10467000030204FC04000000020302020203FC3CEB
:10468000C03CFC0003000300030004FC30C4FC0435
:10469000020302000300F8040404F800010202020D
:1046A000010004FC24241800020302000000F88426
:1046B0008404F80001020207050004FC2464980049
:1046C000020302000302182424448C0003020202A5
:1046D00001000C04FC040C0000020302000004FCB6
:1046E0000000FC04000102020100047C80E01C04C4
:1046F0000000030000001CE03CE01C00000300037D
:104700000000049C609C0400020300030200041CDF
:10471000E01C04000002030200000C84641C04007E
:104720000203020203000000FE0202000000070470
:104730000400000E30C00000000000010200000272
:1047400002FE000000040407000000040204000050
:104750000000000000000000000000000808080839
:1047600008080000020000000000000000000040F7
:10477000A0A0C00000010202030204FC2020C0002F
:1047800000030202010000C02020600000010202BC
:10479000020000C02024FC0000010202030200C04D
:1047A000A0A0C0000001020202000020F82424049E
:1047B0000002030202000040A0A0602000070A0AD5
:1047C0000A0404FC2020C0000203020003020020AF
:1047D000E4000000000203020000000020E40000EA
:1047E00008080807000004FC80E020200203020003
:1047F00003020404FC000000020203020200E020A5
:10480000E020C00003000300030020E02020C000DF
:1048100002030200030200C02020C00000010202C7
:10482000010020E02020C000080F0A02010000C0A3
:104830002020E0000001020A0F0820E040202000B4
:104840000203020000000060A0A02000000202029B
:1048500003000020F820000000000102020020E018
:104860000020E00000010202030220E0208060201E
:104870000000030100006080E0806000000300038E
:10488000000020608060200002030003020020E09E
:10489000208060200808070100000020A0602000A0
:1048A000000203020200000020DE020000000007F8
:1048B0000400000000FF00000000000F00000002E4
:1048C000DE200000000407000000020102040402D0
:1048D00000000000000000000000000000000000D8
:1048E000000000000000000000F8000000000000D0
:1048F00000333000000000100C06100C0600000011
:1049000000000000000040C07840C0784000043F34
:1049100004043F040400007088FC08300000001804
:1049200020FF211E0000F008F000E0180000002128
:104930001C031E211E0000F00888700000001E21CC
:1049400023241927211010160E000000000000007B
:10495000000000000000000000E018040200000059
:1049600000071820400000020418E000000000408A
:10497000201807000000404080F080404000020204
:10498000010F01020200000000F000000000010120
:10499000011F01010100000000000000000080B0C4
:1049A0007000000000000000000000000000000196
:1049B00001010101010100000000000000000030C1
:1049C000300000000000000000008060180400605B
:1049D00018060100000000E010080810E000000FB9
:1049E000102020100F00001010F800000000002020
:1049F000203F202000000070080808887000003068
:104A0000282422213000003008888848300000180F
:104A1000202020110E000000C02010F80000000728
:104A20000424243F240000F808888808080000199E
:104A3000212020110E0000E0108888180000000FCF
:104A4000112020110E0000380808C83808000000A6
:104A5000003F000000000070880808887000001CFB
:104A6000222121221C0000E010080810E0000000B4
:104A7000312222110F00000000C0C0000000000021
:104A80000030300000000000008000000000000046
:104A9000806000000000000080402010080000013D
:104AA0000204081020004040404040404000040400
:104AB00004040404040000081020408000000020CA
:104AC000100804020100007048080808F000000007
:104AD000003036010000C030C828E810E000071898
:104AE000272423140B000000C038E0000000203C05
:104AF00023020227382008F8888888700000203FA9
:104B0000202020110E00C0300808080838000718BF
:104B100020202010080008F808080810E000203FB6
:104B2000202020100F0008F88888E8081000203F97
:104B300020202320180008F88888E8081000203F6B
:104B4000200003000000C0300808083800000718E3
:104B50002020221E020008F808000008F808203F64
:104B6000210101213F20000808F80808000000206A
:104B7000203F2020000000000808F8080800C0803E
:104B800080807F00000008F888C028180800203FB7
:104B900020012638200008F8080000000000203F0F
:104BA00020202020300008F8F800F8F80800203F06
:104BB000003F003F200008F830C00008F808203F00
:104BC000200007183F00E01008080810E0000F1050
:104BD000202020100F0008F808080808F000203FE7
:104BE000210101010000E01008080810E0000F1882
:104BF000242438504F0008F8888888887000203FA7
:104C00002000030C302000708808080838000038A5
:104C1000202121221C00180808F8080818000000AC
:104C2000203F2000000008F808000008F808001FD6
:104C3000202020201F000878880000C838080000C5
:104C400007380E010000F80800F80008F800033CDF
:104C50000700073C030008186880806818082030A7
:104C60002C03032C30200838C800C8380800000086
:104C7000203F2000000010080808C838080020382D
:104C8000262120201800000000FE02020200000081
:104C9000007F40404000000C30C0000000000000D9
:104CA00000010638C00000020202FE0000000040C1
:104CB00040407F00000000000402020204000000E7
:104CC00000000000000000000000000000008080E4
:104CD00080808080808000020204000000000000CC
:104CE00000000000000000008080808000000019AB
:104CF000242222223F2008F8008080000000003F8C
:104D0000112020110E000000008080800000000EA5
:104D1000112020201100000000808088F800000E83
:104D2000112020103F200000808080800000001FA4
:104D3000222222221300008080F088888818002018
:104D4000203F202000000000808080808000006BD9
:104D500094949493600008F8008080800000203FC5
:104D6000210000203F2000809898000000000020D3
:104D7000203F20200000000000809898000000C024
:104D80008080807F000008F8000080808000203F45
:104D900024022D302000000808F800000000002048
:104DA000203F202000008080808080808000203F85
:104DB00020003F20003F8080008080800000203F56
:104DC000210000203F200000808080800000001F24
:104DD000202020201F00808000808000000080FFB5
:104DE000A12020110E000000008080808000000EB5
:104DF000112020A0FF808080800080808000202003
:104E00003F2120000100000080808080800000336E
:104E1000242424241900008080E080800000000009
:104E2000001F202000008080000000808000001F04
:104E3000202020103F2080808000008080800001A2
:104E40000E300806010080800080008080800F30D6
:104E50000C030C300F000080800080808000002058
:104E6000312E0E3120008080800000808080808183
:104E70008E701806010000808080808080000021F4
:104E8000302C2221300000000000807C0202000053
:104E90000000003F404000000000FF000000000054
:104EA0000000FF0000000002027C800000000040C3
:104EB000403F00000000000601010202040400005F
:104EC00000000000000000000000000000000000E2
:104ED00000000000000000000000000000000000D2
:104EE000000000000000000000000000000000F0D2
:104EF000F0F0000000000000000000017F01000051
:104F0000000000000000001C1C1C0000000000004D
:104F10008060301C8C60301C0C0000000000000021
:104F20000000000000000000000000000000000081
:104F30000000000000E00000000000E0000000862B
:104F4000E69F86868686E69F860000011F01010196
:104F500001011F010100000080C06020F820E0C0B6
:104F60000000000003070C18FF70E1810000000042
:104F7000070F10107F100F07000080602060800076
:104F80000000E02000000F3020309F70DC37103030
:104F9000C0000000100E03000718101807000000E2
:104FA000C02020E0C0000000000080E01F38E8873B
:104FB00003C43C040000070F1810100B070D10105D
:104FC000080000808C4C3800000000000000000049
:104FD00000000000000000000000000000000000D1
:104FE00000000000000000000000000080E0300829
:104FF00004000000000000FEFF01000000000000AF
:1050000000000000030F1820400000040830E0807A
:105010000000000000000000000001FFFE00000092
:105020000000004020180F030000000000000000F6
:1050300000000000C00000000000004266663C184E
:10504000FF183C66664200000000000003000000FC
:1050500000000000000000008000000000000010C0
:1050600010101010FF1010101010000000000000B1
:10507000030000000000000000000000000000002D
:1050800000000000000000000000000000000080A0
:105090008C4C380000000000000000000000000000
:1050A0000000000000000010101010101010101070
:1050B00010000000000000000000000000000000E0
:1050C00000000000000000000000000000000000E0
:1050D00000000000000000001C1C1C00000000007C
:1050E00000000000000000000000E0380C0000009C
:1050F000000080701C03000000000060380E0100FA
:10510000000000000000000080C060202060C0801F
:10511000000000FEFF010000000001FFFE00000192
:10512000070E181010180E0701000000808080C0C4
:10513000E000000000000000000000FFFF00000091
:10514000000000001010101F1F1010100000008041
:10515000402020202060C080000000030300804029
:1051600020381F070000001C1A1918181818181FDB
:1051700000000080C020202060C0800000000003EC
:1051800003001010182FE780000000070F10101008
:1051900010180F070000000000000000C0E0F00041
:1051A000000000C0B088868180FFFF808000000082
:1051B00000000010101F1F1010000000E060606071
:1051C00060606060000000003F1008080818F0E010
:1051D000000000070B101010101C0F03000000004F
:1051E00080C040202020E0C0000000FCFF2110080B
:1051F000080818F0E0000001070C18101010080F44
:1052000003000000C0E06060606060E060000000DB
:1052100003000000E0180700000000000000001F6D
:105220001F00000000000080C0602020202060C01F
:1052300080000087EF2C1818303068CF83000007FB
:105240000F0810101010180F07000000C0C0202019
:105250002020C0800000001F3F604040402010FF21
:10526000FE0000000C1C101010080F0300000000CE
:105270000000000000000000000000000000000E20
:105280000E0E0000000000000000001C1C1C0000AE
:10529000000000000000000000000000000000000E
:1052A0000000000C0C00000000000000000000588E
:1052B00038000000000000000000000000804020D6
:1052C00010000000102844820100000000000000CF
:1052D00000000000010204081000000000000000AF
:1052E000000000000000008484848484848484841A
:1052F000840000000000000000000000000000002A
:1053000010204080000000000000000000000000AD
:10531000018244281000000010080402010000006F
:10532000000000C020201010101030E0C00000036A
:10533000030000F010080C070300000000001C1C14
:105340001C0000000000000000C040602020204041
:10535000C00000FCFF01F00E03C1FE03807F0001CE
:10536000070E08111110110904020000000080E06E
:10537000E000000000000000807C4340477FF88090
:10538000000010181F1000000000131F1C1020E068
:10539000E02020202060C080000000FFFF101010DF
:1053A00010182FE78000101F1F1010101010180F7A
:1053B0000700000080C0402020202060E00000FCAA
:1053C000FF0100000000000001000001070E18109E
:1053D00010100804030020E0E02020202040C080BE
:1053E000000000FFFF000000000001FFFE00101F92
:1053F0001F10101018080E07010020E0E0202020E8
:1054000020202060800000FFFF101010107C0000A2
:105410000000101F1F10101010101018060020E0C0
:10542000E020202020206060800000FFFF1010108E
:10543000107C00000100101F1F1000000000000081
:105440000000000080C06020202040E0000000FC40
:10545000FF0100004040C0C140400001070E18108D
:1054600010100F0F000020E0E0200000000020E0FE
:10547000E02000FFFF101010101010FFFF00101FA1
:105480001F1000000000101F1F100000202020E04F
:10549000E020202000000000000000FFFF000000CE
:1054A000000000001010101F1F101010000000005E
:1054B0000000202020E0E02020200000000000006C
:1054C00000FFFF0000000060E0808080C07F3F00A0
:1054D000000020E0E020000020A06020200000FF6D
:1054E000FF30187CE3C000000000101F1F100000F8
:1054F00001131F1C181020E0E02000000000000035
:10550000000000FFFF000000000000000000101F6E
:105510001F10101010101018060020E0E0E000002E
:105520000000E0E0E02000FF013FFEC0E01E01FFC0
:10553000FF00101F1000031F0300101F1F1020E0AA
:10554000E0C0000000000020E02000FF0003071C76
:1055500078E08000FF00101F100000000000030F23
:105560001F00000080C060202060C080000000FE9E
:10557000FF010000000000FFFE000001070E1810F0
:1055800010180C07010020E0E0202020202060C03F
:10559000800000FFFF2020202020301F0F00101F60
:1055A0001F100000000000000000000080C060200C
:1055B0002060C080000000FEFF010000000000FF2E
:1055C000FE000001070E1111133C7C67210020E052
:1055D000E0202020202060C0800000FFFF1010305D
:1055E000F0D0080F0700101F1F10000000030F1C51
:1055F00010100080C060202020204040E000000704
:105600000F0C1818303060E08100001F0C081010DB
:105610001010180F07008060202020E0E0202020DC
:1056200060800100000000FFFF000000000100009A
:105630000000101F1F100000000020E0E02000000C
:1056400000000020E02000FFFF000000000000003C
:10565000FF0000070F18101010101008070020603E
:10566000E0E02000000020E060200000077FF880DC
:1056700000807C03000000000000071F1C070000E2
:10568000000020E0E02000E0E0200020E020000713
:10569000FFF8E01FFFFCE01F00000000031F0300F5
:1056A000011F03000000002060E0A0000020E06077
:1056B0002000000000038F7CF8C6010000000010ED
:1056C000181E130001171F1810002060E0E02000D2
:1056D000000020E06020000001073EF8E01807000D
:1056E000000000000010101F1F10100000000080BC
:1056F0006020202020A0E0E0200000000000C0F09A
:105700003E0F0300000000101C1F1710101010188F
:1057100006000000000000FC040404040400000073
:10572000000000FF00000000000000000000007FFB
:10573000404040404000000010E000000000000039
:10574000000000000000031C60800000000000005A
:105750000000000000030C7080000000040404043A
:1057600004FC0000000000000000000000FF00003A
:105770000000000040404040407F0000000000006A
:105780000010080C040C08100000000000000000CD
:105790000000000000000000000000000000000009
:1057A00000000000000000000000000000000000F9
:1057B00000000000000000000000808080808080E9
:1057C00080808080808000000004040808000000C1
:1057D00000000000000000000000000000000000C9
:1057E00000000000000000000000000000000000B9
:1057F000000000000000000098D844642424FCF855
:105800000000000F1F18101010081F1F1018002094
:10581000E0F000000000000000000000FFFF18089A
:1058200004040CF8F00000001F0F18101010180FDF
:10583000030000000000000000000000000000E085
:10584000F8180404043C3800000000030F0C10108A
:105850001010080600000000000000000020E0F02A
:10586000000000E0F81C04040408FFFF000000032F
:105870000F18101010081F0F080000000000000093
:105880000000000000000000E0F8484444444C7868
:1058900070000000030F0C18101010080400000026
:1058A000000080C0602020E0C00000040404FFFF6E
:1058B000040404040000000010101F1F101010004A
:1058C00000000000000000000000000000000000D8
:1058D00070F88C04048CF874040C007076CF8D8DF5
:1058E0008D89C87870000020E0F000000000000002
:1058F00000000000FFFF08040404FCF80000001092
:105900001F1F100000101F1F10000000000000608B
:105910006000000000000000040404FCFC00000023
:10592000000000001010101F1F10101000000000D9
:10593000000000000060600000000000000004049F
:1059400004FCFC0000000000C0C08080C07F3F005D
:1059500000000020E0F00000000000000000000057
:10596000FFFF80C0F41C0404000000101F1F110082
:10597000031F1C1010000000202020E0F000000099
:1059800000000000000000FFFF0000000000000019
:105990001010101F1F101010000000000000000069
:1059A00000000000000004FCFC0804FCFC0804FCEF
:1059B000FC00101F1F10001F1F10001F1F100000F1
:1059C000000000000000000000000004FCFC0808CB
:1059D0000404FCF8000000101F1F100000101F1F1F
:1059E000100000000000000000000000000000E0C7
:1059F000F0180C04040C18F0E00000030F0C101059
:105A000010100C0F03000000000000000000000058
:105A100000000004FCFC080404040CF8F000008002
:105A2000FFFF889010101C0F030000000000000012
:105A300000000000000000E0F81C04040408F8FC6A
:105A4000000000030F1810109088FFFF8000000076
:105A500000000000000000000000040404FCFC1032
:105A60000804040C0C001010101F1F101010000070
:105A70000000000000000000000000000000000026
:105A80003078CCC48484840C1C0000001E181010D4
:105A90001011190F06000000000000C000000000F7
:105AA000000000040404FFFF0404040000000000E0
:105AB00000000F1F1010100C00000000000000007C
:105AC0000000000000000004FCFE00000004FCFEDA
:105AD000000000000F1F181010081F0F0800000022
